:020000040800F2
:100000003004002065010008E3020008DB0200085C
:10001000DF020008AD010008C5060008000000006E
:10002000000000000000000000000000DD030008E8
:10003000B101000800000000E5020008C504000846
:100040007F0100087F0100087F0100087F01000890
:100050007F0100087F0100087F0100087F01000880
:100060007F0100087F0100087F0100087F01000870
:100070007F0100087F0100087F0100087F01000860
:100080007F0100087F0100087F0100087F01000850
:100090007F0100087F0100087F0100087F01000840
:1000A0007F0100087F0100087F0100087F01000830
:1000B0007F0100087F0100087F0100087F01000820
:1000C0007F0100087F0100087F0100087F01000810
:1000D0007F0100087F0100087F0100087F01000800
:1000E0007F0100087F0100087F0100080000000078
:1000F0000000000000000000000000000000000000
:1001000000000000000000007F0100087F010008DF
:100110007F0100087F0100087F0100087F010008BF
:100120007F0100087F0100087F0100087F010008AF
:100130007F0100087F0100087F0100087F0100089F
:100140007F0100087F0100087F0100087F0100088F
:10015000DFF80CD000F018F8004800473D07000811
:10016000300400200648804706480047FEE7FEE7C7
:10017000FEE7FEE7FEE7FEE7FEE7FEE7FEE7FEE757
:10018000D504000851010008064C074D06E0E06860
:1001900040F0010394E8070098471034AC42F6D3CE
:1001A000FFF7DAFFC0070008E007000800BFFEE71E
:1001B000704700000349086000BF02490968002930
:1001C000FBD17047140000202DE9F04102460025C4
:1001D0000026002000230024002791F803C00CF023
:1001E0000F0591F803C01CF0100F03D091F802C066
:1001F0004CEA050591F800C0BCF1000F31D014683D
:1002000000202BE04FF0010C0CFA00F3B1F800C015
:100210000CEA03069E4220D183004FF00F0C0CFA2B
:1002200003F7BC4305FA03FC4CEA040491F803C04D
:10023000BCF1280F06D14FF0010C0CFA00FCC2F8FB
:1002400014C00AE091F803C0BCF1480F05D14FF08B
:10025000010C0CFA00FCC2F810C0401C0828D1D3D5
:100260001460B1F800C0BCF1FF0F34DD5468002009
:100270002EE000F1080C4FF0010808FA0CF3B1F879
:1002800000C00CEA03069E4221D183004FF00F0C00
:100290000CFA03F7BC4305FA03FC4CEA040491F89A
:1002A00003C0BCF1280F05D100F1080C08FA0CF8C6
:1002B000C2F8148091F803C0BCF1480F07D100F1D7
:1002C000080C4FF0010808FA0CF8C2F81080401C26
:1002D0000828CED35460BDE8F08100BFFEE700BF20
:1002E000FEE770477047000029B1064A9269024351
:1002F000044B9A6104E0034A92698243014B9A617C
:10030000704700000010024030B500210022002498
:1003100000232D4D6D6805F00C0121B1042905D095
:10032000082923D105E0294D056022E0274D05600D
:100330001FE0254D6D6805F47012234D6D6805F4BE
:100340008034022505EB92421CB9214D55430560CE
:100350000BE01D4D6D6815F4003F03D01C4D554357
:10036000056002E0194D5543056002E0174D056038
:1003700000BF00BF144D6D6805F0F0010909154D6F
:100380006B5C0568DD4045600F4D6D6805F4E0610C
:10039000090A104D6B5C4568DD4085600A4D6D684B
:1003A00005F46051C90A0B4D6B5C4568DD40C560C2
:1003B000054D6D6805F44041890B074D6B5CC568C0
:1003C000B5FBF3F5056130BD0010024000127A0064
:1003D00000093D000000002010000020704710B50B
:1003E00000F002F810BD00000CB500200190009054
:1003F0003248006840F480303049086000BF2F4820
:10040000006800F4003000900198401C01900098B2
:1004100018B90198B0F5A06FF1D12848006810F420
:10042000003F02D00120009001E0002000900098E1
:10043000012842D12248006840F01000204908609D
:100440000846006820F0030008600846006840F095
:10045000020008601948406818494860084640682A
:1004600048600846406840F480604860084640683C
:1004700020F47C1048600846406840F4E81048606A
:100480000846006840F08070086000BF0B480068B4
:1004900010F0007FFAD00948406820F003000749B7
:1004A00048600846406840F00200486000BF0348CA
:1004B000406800F00C000828F9D10CBD0010024083
:1004C0000020024002480068401E01490860704751
:1004D0001400002010B51348006840F001001149D5
:1004E000086008464068104908400E4948600846C0
:1004F00000680E4908400B4908600846006820F46F
:10050000802008600846406820F4FE0048604FF4F0
:100510001F008860FFF763FF4FF000600449086028
:1005200010BD0000001002400000FFF8FFFFF6FEC3
:1005300008ED00E000B585B0012144F20400FFF7AA
:10054000D3FE4FF40070ADF8000003208DF80200D8
:1005500018208DF8030069461348FFF735FE4FF465
:100560008060ADF8000004208DF8030069460E4855
:10057000FFF72AFE4FF4E13001900020ADF81000A3
:100580000C20ADF80E000020ADF80C00ADF80A000C
:10059000ADF8080001A9054800F024F8012103483E
:1005A00000F006F805B000BD000801400038014029
:1005B00021B1828942F40052828104E082894DF6A1
:1005C000FF731A408281704702460020B1F5007F18
:1005D00000D100BF13880B4201D0012000E00020B1
:1005E000704700002DE9F04786B005460E4600240E
:1005F000A24600BFA1460027B08900B100BF2F4628
:100600002C8A4CF6FF700440F08804432C82AC899D
:100610004EF6F3100440B0883189084371890843CD
:100620000443AC81AC8A4FF6FF400440B0890443D8
:10063000AC8201A8FFF768FE1F48874202D1DDF8AF
:1006400010A001E0DDF80CA0A88910F4004F08D03C
:100650000AEBCA0000EB0A1031684900B0FBF1F860
:1006600007E00AEBCA0000EB0A1031688900B0FB12
:10067000F1F86420B8FBF0F004012009642101FBCB
:100680001089A88910F4004F08D0322000EBC9006F
:10069000B0FBF1F000F00700044308E0322000EB6B
:1006A00009106421B0FBF1F000F00F0004432C812D
:1006B00006B0BDE8F087000000380140C1F3080231
:1006C0008280704700BFFEE7014A024900F013B87C
:1006D000190700082C00002002E008C8121F08C1FA
:1006E000002AFAD170477047002001E001C1121FB3
:1006F000002AFBD170472DE9F04116460F4604460B
:10070000002503E03946B0476D1C641C20780028A2
:10071000F8D12846BDE8F08170B504460D46E1B237
:100720000548FFF7CBFF00BF40210348FFF74CFF10
:100730000028F9D0204670BD0038014018480068F4
:100740004FF47A72B0FBF2F1481EB0F1807F00D313
:100750001BE0481E4FF0E022506150170F22002886
:1007600007DA13071D0E0F4B00F00F04241F1D5551
:1007700003E013071C0E0C4B1C5400BF00204FF06D
:10078000E02290610720106100BFFFF7D3FE06E072
:1007900006A0FFF799FF40F2DC50FFF70BFDF7E7EB
:1007A0001800002018ED00E000E400E0536D6172D5
:1007B00074476C6F766520546573740A00000000FE
:1007C000E00700080000002030000000D806000804
:1007D000100800083000002000040000E8060008AF
:1007E00000000000010203040102030406070809D7
:1007F000020406080000000000A24A0400000000F5
:1008000000000000010203040607080900000000C0
:04000005080001519D
:00000001FF
