:020000040800F2
:100000005804002065010008110400082F030008AF
:100010000D040008AD0100081909000800000000E7
:10002000000000000000000000000000490500087A
:100030000502000800000000130400083106000853
:100040007F0100087F0100087F0100087F01000890
:100050007F0100087F0100087F0100087F01000880
:100060007F0100087F0100087F0100087F01000870
:100070007F0100087F0100087F0100087F01000860
:100080007F0100087F0100087F0100087F01000850
:100090007F0100087F0100087F0100087F01000840
:1000A0007F0100087F0100087F0100087F01000830
:1000B0007F0100087F0100087F0100087F01000820
:1000C0007F0100087F0100087F0100087F01000810
:1000D0007F0100087F0100087F0100087F01000800
:1000E0007F0100087F0100087F0100080000000078
:1000F0000000000000000000000000000000000000
:1001000000000000000000007F0100087F010008DF
:100110007F0100087F0100087F0100087F010008BF
:100120007F0100087F0100087F0100087F010008AF
:100130007F0100087F0100087F0100087F0100089F
:100140007F0100087F0100087F0100087F0100088F
:10015000DFF80CD000F018F800480047510A0008FA
:10016000580400200648804706480047FEE7FEE79F
:10017000FEE7FEE7FEE7FEE7FEE7FEE7FEE7FEE757
:100180004106000851010008064C074D06E0E068F2
:1001900040F0010394E8070098471034AC42F6D3CE
:1001A000FFF7DAFF740A0008940A000800BFFEE7B0
:1001B00021B1026842F00102026004E002684FF6D9
:1001C000FE731A400260704710B50022026847F6BD
:1001D000F0739A430C6A8B6823430C6923434C6980
:1001E00023438C692343CC6923434C6A23438C6AA1
:1001F00023431A430260CB6843600B6883604B68FB
:10020000C36010BD704700000349086000BF024989
:1002100009680029FBD17047000000202DE9F0415A
:10022000024600250026002000230024002791F824
:1002300003C00CF00F0591F803C01CF0100F03D0A1
:1002400091F802C04CEA050591F800C0BCF1000F1E
:1002500031D0146800202BE04FF0010C0CFA00F3B1
:10026000B1F800C00CEA03069E4220D183004FF093
:100270000F0C0CFA03F7BC4305FA03FC4CEA040428
:1002800091F803C0BCF1280F06D14FF0010C0CFA15
:1002900000FCC2F814C00AE091F803C0BCF1480F9A
:1002A00005D14FF0010C0CFA00FCC2F810C0401C44
:1002B0000828D1D31460B1F800C0BCF1FF0F34DDC1
:1002C000546800202EE000F1080C4FF0010808FAF5
:1002D0000CF3B1F800C00CEA03069E4221D1830062
:1002E0004FF00F0C0CFA03F7BC4305FA03FC4CEA81
:1002F000040491F803C0BCF1280F05D100F1080CEB
:1003000008FA0CF8C2F8148091F803C0BCF1480F49
:1003100007D100F1080C4FF0010808FA0CF8C2F8F8
:100320001080401C0828CED35460BDE8F08100BF87
:10033000FEE7000070B51B4800684FF47A72B0FB0E
:10034000F2F1481EB0F1807F00D31BE0481E4FF051
:10035000E022506150170F22002807DA13071D0E04
:10036000114B00F00F04241F1D5503E013071C0E52
:100370000E4B1C5400BF00204FF0E022906107207C
:10038000106100BF00F02CF800F014F800F088F9BC
:1003900000F0F0F900F0C2F901224021044800F019
:1003A00035FA70BD1800002018ED00E000E400E010
:1003B0000038014008B50121102000F04BF805205D
:1003C000ADF8000001208DF8020028208DF8030010
:1003D00069460248FFF722FF08BD000000100140F7
:1003E00008B50121402000F035F80120ADF80000EB
:1003F00010208DF8030001208DF8020069460248A4
:10040000FFF70CFF08BD00000018014000BFFEE729
:100410007047704729B1064A52690243044B5A613A
:1004200004E0034A52698243014B5A61704700005D
:100430000010024029B1064AD2690243044BDA6136
:1004400004E0034AD2698243014BDA61704700003D
:100450000010024029B1064A92690243044B9A6196
:1004600004E0034A92698243014B9A61704700009D
:100470000010024030B500210022002400232D4D41
:100480006D6805F00C0121B1042905D0082923D19C
:1004900005E0294D056022E0274D05601FE0254D50
:1004A0006D6805F47012234D6D6805F480340225E3
:1004B00005EB92421CB9214D554305600BE01D4DE3
:1004C0006D6815F4003F03D01C4D5543056002E0F4
:1004D000194D5543056002E0174D056000BF00BF90
:1004E000144D6D6805F0F0010909154D6B5C056848
:1004F000DD4045600F4D6D6805F4E061090A104D5F
:100500006B5C4568DD4085600A4D6D6805F460519F
:10051000C90A0B4D6B5C4568DD40C560054D6D68D3
:1005200005F44041890B074D6B5CC568B5FBF3F5DD
:10053000056130BD0010024000127A0000093D0044
:100540000400002014000020704710B500F002F8ED
:1005500010BD00000CB500200190009032480068EA
:1005600040F480303049086000BF2F48006800F434
:10057000003000900198401C0190009818B9019833
:10058000B0F5A06FF1D12848006810F4003F02D008
:100590000120009001E0002000900098012842D145
:1005A0002248006840F010002049086008460068B2
:1005B00020F0030008600846006840F00200086070
:1005C000194840681849486008464068486008462D
:1005D000406840F4806048600846406820F47C1021
:1005E00048600846406840F4E810486008460068E3
:1005F00040F08070086000BF0B48006810F0007F7A
:10060000FAD00948406820F00300074948600846CE
:10061000406840F00200486000BF0348406800F0B6
:100620000C000828F9D10CBD001002400020024047
:1006300002480068401E0149086070470000002021
:1006400010B51348006840F00100114908600846E1
:100650004068104908400E494860084600680E4945
:1006600008400B4908600846006820F480200860B4
:100670000846406820F4FE0048604FF41F00886080
:10068000FFF763FF4FF000600449086010BD0000F1
:10069000001002400000FFF8FFFFF6FE08ED00E04A
:1006A00000B585B0012144F20400FFF7D3FE4FF4FA
:1006B0000070ADF8100018208DF8130003208DF89D
:1006C000120004A91348FFF7A9FD4FF48060ADF8AC
:1006D000100004208DF8130004A90E48FFF79EFDBA
:1006E0004FF4165000900020ADF80400ADF806005D
:1006F000ADF80800ADF80C000C20ADF80A00694612
:10070000054800F099F80121034800F073F805B09E
:1007100000BD0000000801400038014000B58BB06A
:1007200001210846FFF776FE0F4800900F48019020
:10073000002002902120039000200490802005904A
:1007400000200690079020200890C001099000200A
:100750000A9069460648FFF737FD01210448FFF774
:1007600027FD0BB000BD0000043801403000002020
:100770005800024000B585B001210420FFF76AFE51
:1007800001214804FFF756FE0420ADF800000320C5
:100790008DF8020018208DF8030069461348FFF712
:1007A0003DFD0820ADF8000004208DF803006946E7
:1007B0000E48FFF733FD4FF4E13001900020ADF813
:1007C00010000C20ADF80E000020ADF80C00ADF8C4
:1007D0000A00ADF8080001A9054800F02DF8012134
:1007E000034800F007F805B000BD00000008014014
:1007F0000044004021B1828942F40052828104E029
:1008000082894DF6FF731A40828170471AB1838A3C
:100810000B43838202E0838A8B43838270470246C4
:100820000020B1F5007F00D100BF13880B4201D03A
:10083000012000E0002070472DE9F04786B0054612
:100840000E460024A24600BFA1460027B08900B191
:1008500000BF2F462C8A4CF6FF700440F0880443FA
:100860002C82AC894EF6F3100440B08831890843DD
:10087000718908430443AC81AC8A4FF6FF400440C1
:10088000B0890443AC8201A8FFF7F4FD1F488742FA
:1008900002D1DDF810A001E0DDF80CA0A88910F469
:1008A000004F08D00AEBCA0000EB0A10316849007B
:1008B000B0FBF1F807E00AEBCA0000EB0A10316860
:1008C0008900B0FBF1F86420B8FBF0F004012009C6
:1008D000642101FB1089A88910F4004F08D0322050
:1008E00000EBC900B0FBF1F000F00700044308E0A2
:1008F000322000EB09106421B0FBF1F000F00F0092
:1009000004432C8106B0BDE8F087000000380140A8
:10091000C1F308028280704700BFFEE70FB4054BA9
:1009200010B503A9044A029800F017F810BC5DF84E
:1009300014FB00002D0A00082C00002002E008C86B
:10094000121F08C1002AFAD170477047002001E049
:1009500001C1121F002AFBD170472DE9F84F9946BB
:10096000924688460546002759E0252801D0514681
:1009700023E0002315F8011F18462E2915D115F87C
:10098000011F04232A290DD06FF02F022978A1F12D
:100990003004092C09D800EB800002EB4000084429
:1009A0006D1CF3E758F8040B6D1C2A7872B3632AA8
:1009B00008D0732A10D0514610464A46904707F196
:1009C00001072BE018F8042B8DF8002000218DF88A
:1009D00001106E46012103E058F8046B4FF0FF311F
:1009E0005A074FF0000401D409E0641C84420BDA7A
:1009F0008C42FADB325D002AF7D105E0641C8C42A0
:100A0000FCDB305D0028F9D1274405E00AE016F848
:100A1000010B51464A469047641EF8D26D1C287857
:100A20000028A2D13846BDE8F88F000070B5044612
:100A30000D46E1B20548FFF76BFF00BF40210348B8
:100A4000FFF7EDFE0028F9D0204670BD00440040BD
:100A5000FFF770FC07E0044904A0FFF75FFF40F2D6
:100A6000DC50FFF7D1FBF6E7300000206325730A66
:100A700000000000940A0008000000203000000080
:100A80003C090008C40A00083000002028040000C7
:100A90004C090008000000000000000001020304EF
:100AA00001020304060708090204060800A24A041A
:100AB000000000000000000001020304060708090E
:040AC0000000000032
:04000005080001519D
:00000001FF
