:020000040800F2
:10000000300400206501000875030008F5020008AF
:1000100071030008AD010008890700080000000016
:100020000000000000000000000000006D04000857
:10003000B10100080000000077030008AD050008CA
:100040007F0100087F0100087F0100087F01000890
:100050007F0100087F0100087F0100087F01000880
:100060007F0100087F0100087F0100087F01000870
:100070007F0100087F0100087F0100087F01000860
:100080007F0100087F0100087F0100087F01000850
:100090007F0100087F0100087F0100087F01000840
:1000A0007F0100087F0100087F0100087F01000830
:1000B0007F0100087F0100087F0100087F01000820
:1000C0007F0100087F0100087F0100087F01000810
:1000D0007F0100087F0100087F0100087F01000800
:1000E0007F0100087F0100087F0100080000000078
:1000F0000000000000000000000000000000000000
:1001000000000000000000007F0100087F010008DF
:100110007F0100087F0100087F0100087F010008BF
:100120007F0100087F0100087F0100087F010008AF
:100130007F0100087F0100087F0100087F0100089F
:100140007F0100087F0100087F0100087F0100088F
:10015000DFF80CD000F018F800480047AD070008A1
:10016000300400200648804706480047FEE7FEE7C7
:10017000FEE7FEE7FEE7FEE7FEE7FEE7FEE7FEE757
:10018000BD05000851010008064C074D06E0E06877
:1001900040F0010394E8070098471034AC42F6D3CE
:1001A000FFF7DAFF380800085808000800BFFEE72C
:1001B000704700000349086000BF02490968002930
:1001C000FBD17047040000202DE9F04102460025D4
:1001D0000026002000230024002791F803C00CF023
:1001E0000F0591F803C01CF0100F03D091F802C066
:1001F0004CEA050591F800C0BCF1000F31D014683D
:1002000000202BE04FF0010C0CFA00F3B1F800C015
:100210000CEA03069E4220D183004FF00F0C0CFA2B
:1002200003F7BC4305FA03FC4CEA040491F803C04D
:10023000BCF1280F06D14FF0010C0CFA00FCC2F8FB
:1002400014C00AE091F803C0BCF1480F05D14FF08B
:10025000010C0CFA00FCC2F810C0401C0828D1D3D5
:100260001460B1F800C0BCF1FF0F34DD5468002009
:100270002EE000F1080C4FF0010808FA0CF3B1F879
:1002800000C00CEA03069E4221D183004FF00F0C00
:100290000CFA03F7BC4305FA03FC4CEA040491F89A
:1002A00003C0BCF1280F05D100F1080C08FA0CF8C6
:1002B000C2F8148091F803C0BCF1480F07D100F1D7
:1002C000080C4FF0010808FA0CF8C2F81080401C26
:1002D0000828CED35460BDE8F08102460020936820
:1002E0000B4201D0012000E00020704741617047BF
:1002F0000161704700BFFEE708B50121102000F042
:100300003BF80520ADF8000001208DF80200282000
:100310008DF8030069460248FFF756FF08BD00004C
:100320000010014070B504460D4625B92146044829
:10033000FFF7DEFF03E021460148FFF7D7FF70BD5E
:100340000018014008B50121402000F015F80120F7
:10035000ADF8000010208DF8030001208DF8020098
:1003600069460248FFF730FF08BD00000018014051
:1003700000BFFEE77047704729B1064A9269024301
:10038000044B9A6104E0034A92698243014B9A61EB
:10039000704700000010024030B500210022002408
:1003A00000232D4D6D6805F00C0121B1042905D005
:1003B000082923D105E0294D056022E0274D05607D
:1003C0001FE0254D6D6805F47012234D6D6805F42E
:1003D0008034022505EB92421CB9214D554305603E
:1003E0000BE01D4D6D6815F4003F03D01C4D5543C7
:1003F000056002E0194D5543056002E0174D0560A8
:1004000000BF00BF144D6D6805F0F0010909154DDE
:100410006B5C0568DD4045600F4D6D6805F4E0617B
:10042000090A104D6B5C4568DD4085600A4D6D68BA
:1004300005F46051C90A0B4D6B5C4568DD40C56031
:10044000054D6D6805F44041890B074D6B5CC5682F
:10045000B5FBF3F5056130BD0010024000127A00D3
:1004600000093D000800002018000020704700002F
:1004700010B504211148FFF730FF60B10520FFF7E8
:1004800099FE04210D48FFF728FF08B1012000E084
:1004900000200B49087001210848FFF71EFF60B1DA
:1004A0000520FFF787FE01210448FFF716FF08B17A
:1004B000012000E000200349087010BD0010014039
:1004C000000000200100002010B500F001F810BD70
:1004D0000CB50020019000903248006840F4803054
:1004E0003049086000BF2F48006800F400300090D9
:1004F0000198401C0190009818B90198B0F5A06FC0
:10050000F1D12848006810F4003F02D0012000908B
:1005100001E0002000900098012842D122480068A4
:1005200040F01000204908600846006820F00300F1
:1005300008600846006840F00200086019484068FA
:10054000184948600846406848600846406840F4DA
:10055000806048600846406820F47C104860084687
:10056000406840F4E81048600846006840F0807039
:10057000086000BF0B48006810F0007FFAD00948FF
:10058000406820F00300074948600846406840F092
:100590000200486000BF0348406800F00C000828D3
:1005A000F9D10CBD00100240002002400248006852
:1005B000401E0149086070470400002010B5134830
:1005C000006840F001001149086008464068104981
:1005D00008400E494860084600680E4908400B492B
:1005E00008600846006820F48020086008464068DB
:1005F00020F4FE0048604FF41F008860FFF764FF9E
:100600004FF000600449086010BD00000010024077
:100610000000FFF8FFFFF6FE08ED00E000B585B032
:10062000012144F20400FFF7A7FE4FF40070ADF87B
:10063000000003208DF8020018208DF803006946A1
:100640001348FFF7C1FD4FF48060ADF800000420AF
:100650008DF8030069460E48FFF7B6FD4FF4E13010
:1006600001900020ADF810000C20ADF80E00002025
:10067000ADF80C00ADF80A00ADF8080001A9054876
:1006800000F016F80121034800F006F805B000BD9F
:10069000000801400038014021B1828942F4005233
:1006A000828104E082894DF6FF731A40828170478F
:1006B0002DE9F04786B005460E460024A24600BF4D
:1006C000A1460027B08900B100BF2F462C8A4CF606
:1006D000FF700440F08804432C82AC894EF6F3107E
:1006E0000440B08831890843718908430443AC81D0
:1006F000AC8A4FF6FF400440B0890443AC8201A8A5
:10070000FFF74AFE1F48874202D1DDF810A001E042
:10071000DDF80CA0A88910F4004F08D00AEBCA003D
:1007200000EB0A1031684900B0FBF1F807E00AEB72
:10073000CA0000EB0A1031688900B0FBF1F86420B0
:10074000B8FBF0F004012009642101FB1089A8899D
:1007500010F4004F08D0322000EBC900B0FBF1F0DC
:1007600000F00700044308E0322000EB0910642188
:10077000B0FBF1F000F00F0004432C8106B0BDE89F
:10078000F08700000038014000BFFEE702E008C823
:10079000121F08C1002AFAD170477047002001E0FB
:1007A00001C1121F002AFBD1704700001E480068DB
:1007B0004FF47A72B0FBF2F1481EB0F1807F00D3A3
:1007C0001BE0481E4FF0E022506150170F22002816
:1007D00007DA13071D0E154B00F00F04241F1D55DB
:1007E00003E013071C0E124B1C5400BF00204FF0F7
:1007F000E02290610720106100BFFFF7A3FDFFF723
:100800000DFFFFF779FD0DE0FFF732FE0948007894
:1008100020B101210846FFF785FD03E000210120FA
:10082000FFF780FDF0E700001C00002018ED00E05D
:1008300000E400E00100002058080008000000204B
:10084000300000008C0700088808000830000020F5
:10085000000400009C0700080000000000000000E9
:100860000000000001020304010203040607080956
:100870000204060800A24A04000000000000000074
:08088000010203040607080948
:04000005080001519D
:00000001FF
