:020000040800F2
:100000000804002065010008BB010008B3010008D6
:10001000B7010008AD01000815030008000000004A
:10002000000000000000000000000000BF01000808
:10003000B101000800000000BD010008A502000891
:100040007F0100087F0100087F0100087F01000890
:100050007F0100087F0100087F0100087F01000880
:100060007F0100087F0100087F0100087F01000870
:100070007F0100087F0100087F0100087F01000860
:100080007F0100087F0100087F0100087F01000850
:100090007F0100087F0100087F0100087F01000840
:1000A0007F0100087F0100087F0100087F01000830
:1000B0007F0100087F0100087F0100087F01000820
:1000C0007F0100087F0100087F0100087F01000810
:1000D0007F0100087F0100087F0100087F01000800
:1000E0007F0100087F0100087F0100080000000078
:1000F0000000000000000000000000000000000000
:1001000000000000000000007F0100087F010008DF
:100110007F0100087F0100087F0100087F010008BF
:100120007F0100087F0100087F0100087F010008AF
:100130007F0100087F0100087F0100087F0100089F
:100140007F0100087F0100087F0100087F0100088F
:10015000DFF80CD000F018F800480047370300081B
:10016000080400200648804706480047FEE7FEE7EF
:10017000FEE7FEE7FEE7FEE7FEE7FEE7FEE7FEE757
:10018000B502000851010008064C074D06E0E06882
:1001900040F0010394E8070098471034AC42F6D3CE
:1001A000FFF7DAFF3C0300085C03000800BFFEE72E
:1001B000704700BFFEE700BFFEE77047704770471B
:1001C00010B500F001F810BD0CB5002001900090B2
:1001D0003248006840F480303049086000BF2F4842
:1001E000006800F4003000900198401C01900098D5
:1001F00018B90198B0F5A06FF1D12848006810F443
:10020000003F02D00120009001E000200090009803
:10021000012842D12248006840F0100020490860BF
:100220000846006820F0030008600846006840F0B7
:10023000020008601948406818494860084640684C
:1002400048600846406840F480604860084640685E
:1002500020F47C1048600846406840F4E81048608C
:100260000846006840F08070086000BF0B480068D6
:1002700010F0007FFAD00948406820F003000749D9
:1002800048600846406840F00200486000BF0348EC
:10029000406800F00C000828F9D10CBD00100240A5
:1002A0000020024002480068401E01490860704773
:1002B0000000002010B51348006840F0010011490B
:1002C000086008464068104908400E4948600846E2
:1002D00000680E4908400B4908600846006820F491
:1002E000802008600846406820F4FE0048604FF413
:1002F0001F008860FFF764FF4FF00060044908604A
:1003000010BD0000001002400000FFF8FFFFF6FEE5
:1003100008ED00E000BFFEE702E008C8121F08C1B8
:10032000002AFAD170477047002001E001C1121F76
:10033000002AFBD170470020704700005C030008D2
:1003400000000020040000001803000860030008FB
:10035000040000200404000028030008000000003E
:04000005080001519D
:00000001FF
