:020000040800F2
:100000009004002065010008AD090008CD08000833
:10001000A909000855060008650F00080000000047
:10002000000000000000000000000000390B000884
:10003000F506000800000000010A00087D0C000819
:100040007F0100087F0100087F0100087F01000890
:100050007F0100087F0100087F0100087F01000880
:100060007F0100087F0100087F0100087F01000870
:100070007F0100087F0100087F0100087F01000860
:100080007F0100087F0100087F0100087F01000850
:100090007F0100087F0100087F0100087F01000840
:1000A0007F0100087F0100087F0100087F01000830
:1000B0007F0100087F0100087F0100087F01000820
:1000C0007F0100087F0100087F0100087F01000810
:1000D0007F0100087F0100087F0100087F01000800
:1000E0007F0100087F0100087F0100080000000078
:1000F0000000000000000000000000000000000000
:1001000000000000000000007F0100087F010008DF
:100110007F0100087F0100087F0100087F010008BF
:100120007F0100087F0100087F0100087F010008AF
:100130007F0100087F0100087F0100087F0100089F
:100140007F0100087F0100087F0100087F0100088F
:10015000DFF80CD000F01AFA00480047AD0F000895
:10016000900400200648804706480047FEE7FEE767
:10017000FEE7FEE7FEE7FEE7FEE7FEE7FEE7FEE757
:100180008D0C0008510100082DE9FE4F81EA03049F
:1001900004F0004421F0004100944FF0000B23F0E4
:1001A000004350EA010402D052EA030404D10020C3
:1001B000014603B0BDE8F08FC3F30A54C1F30A55FA
:1001C0002C44A4F2F3340194A0FB0254C1F31301B4
:1001D00041F48011C3F3130343F4801301FB024481
:1001E00000FB034E840A970A44EA815447EA835786
:1001F000A4FB076802958D0A05FB07854FEA932C3F
:1002000004FB0C542705029D4FEA065847EA1637AF
:10021000B5EB08056EEB070C870E920E47EA8117C7
:1002200042EA8312A7FB0201B6EB0B0164EB000468
:100230002B0D43EA0C335E1844EB1C50DA46514652
:10024000E7FB0201C5F313044FEA0B3343EA1453EF
:100250004FEA0432019C43EA0603A4F10C04029421
:10026000009CCDE900B400F03FF9A2E72DE9F04D84
:1002700081EA030404F0004B21F0004514464FF0DE
:10028000000A23F0004150EA050220D054EA01029E
:100290001DD0C5F30A570246C5F31303C1F313007B
:1002A000C1F30A5640F4801543F48013A7EB060807
:1002B000101BD64608F2FD3873EB050002D308F197
:1002C000010801E092185B41B8F1000F03DA002049
:1002D0000146BDE8F08D00204FF4801106468446AB
:1002E0000EE0171B73EB050705D3121B63EB050329
:1002F00006434CEA010C49084FEA300092185B4172
:1003000050EA0107EDD152EA030012D082EA04005C
:1003100083EA0501084303D100224FF0004308E0BF
:10032000101BAB4102D20122002302E06FF0010258
:1003300053101AEB06004CEB085110EB0A0041EB8E
:100340000B01BDE8F04D00F0C2B80EB5C10F80EA58
:10035000E0700844CA07002140F233438DE80E00E4
:100360000A460B4600F0C0F803B000BDC1F30A52C4
:1003700010B5C1F3130140F2FF3341F480119A42EA
:1003800001DA002010BD40F233439A42A2F2334218
:1003900003DC524200F055F810BD904010BD00F053
:1003A000004230F000400AD0C10D01F56071C0F389
:1003B000160042EA0151C20840071143704700206D
:1003C0000146704730B5002904DB4FF0004440423D
:1003D00064EB0101002B04DB4FF00044524264EB5C
:1003E00003038B4208BF824230BD000001F000438E
:1003F00030B421F0004150EA010206D00A0DA2F506
:100400006072C1F31301002A02DC30BC0020704787
:10041000440F44EAC104C100E01830BC00EBC250F4
:1004200000F01FB8202A04DB203A00FA02F1002075
:1004300070479140C2F1200320FA03F31943904022
:100440007047202A04DB203A21FA02F0002170478D
:1004500021FA02F3D040C2F120029140084319462C
:1004600070470029A8BF7047401C490008BF20F012
:100470000100704710B4B0FA80FC00FA0CF050EAAA
:10048000010404BF10BC704749B1CCF1200421FA2B
:1004900004F411FA0CF118BF012121430843A3EB26
:1004A0000C01CB1D0106000A002BBEBF002010BCB2
:1004B000704700EBC35010440029A4BF10BC704724
:1004C000401C490008BF20F0010010BC704710B567
:1004D000002B08DA401C41F1000192185B411A43DD
:1004E00001D120F0010010BD2DE9F04D92469B4650
:1004F00011B1B1FA81F202E0B0FA80F220329046F6
:10050000FFF790FF04460F4640EA0A0041EA0B015C
:1005100053465A46084303D120463946BDE8F08D7C
:10052000114653EA010015D0C8F140025046FFF7CA
:1005300088FF05460E46504659464246FFF772FF71
:10054000084301D0012000E00020054346EAE076A0
:100550002C4337430A984FEA4453A0EB08004FEA74
:10056000D4240A304FF0000244EA47544FEAD7251A
:1005700002D500200146D1E7010510196941DDE9E6
:10058000084500196941BDE8F04DA0E7064C074D4C
:1005900006E0E06840F0010394E807009847103453
:1005A000AC42F6D3FFF7D8FD041000082410000871
:1005B0002DE9F05F4FF0000B3EE00BEB4B0000EB42
:1005C000CB00401C1F49085C522833D14FF0000A71
:1005D0002BE0022101EB4A010BEB4B0202EBCB02B9
:1005E0001144184A525C4FEA4A01C91C0BEB4B03F9
:1005F00003EBCB031944134B595C42EA012108B2C7
:10060000FFF7A3FE804600220F4BFFF72FFE0646A2
:1006100000220E4BFFF7B8FD0446FFF7E7FE0C493A
:1006200041F82A000AF101008246BAF1030FD0DB3B
:10063000BDE8F09F0BF1010BBBF1030FBDDB00BF69
:10064000F6E700006C0000200000E04000409F4002
:100650005400002000BFFEE710F0805F02D0034985
:10066000086001E00249486070470000040402404D
:100670000000024021B1026842F00102026004E081
:1006800002684FF6FE731A40026070470146002070
:10069000002211F0805F02D0054B1A6801E0054B83
:1006A0001A680A4201D0012000E0002070470000D3
:1006B000000402400000024010B50022026847F624
:1006C000F0739A430C6A8B6823430C6923434C698B
:1006D00023438C692343CC6923434C6A23438C6AAC
:1006E00023431A430260CB6843600B6883604B6806
:1006F000C36010BD704700000349086000BF024995
:1007000009680029FBD17047040000202DE9F04161
:10071000024600250026002000230024002791F82F
:1007200003C00CF00F0591F803C01CF0100F03D0AC
:1007300091F802C04CEA050591F800C0BCF1000F29
:1007400031D0146800202BE04FF0010C0CFA00F3BC
:10075000B1F800C00CEA03069E4220D183004FF09E
:100760000F0C0CFA03F7BC4305FA03FC4CEA040433
:1007700091F803C0BCF1280F06D14FF0010C0CFA20
:1007800000FCC2F814C00AE091F803C0BCF1480FA5
:1007900005D14FF0010C0CFA00FCC2F810C0401C4F
:1007A0000828D1D31460B1F800C0BCF1FF0F34DDCC
:1007B000546800202EE000F1080C4FF0010808FA00
:1007C0000CF3B1F800C00CEA03069E4221D183006D
:1007D0004FF00F0C0CFA03F7BC4305FA03FC4CEA8C
:1007E000040491F803C0BCF1280F05D100F1080CF6
:1007F00008FA0CF8C2F8148091F803C0BCF1480F55
:1008000007D100F1080C4FF0010808FA0CF8C2F803
:100810001080401C0828CED35460BDE8F081024609
:10082000002093680B4201D0012000E000207047B7
:100830002DE9F041FFF7BCFE1F490868FFF7AFFD47
:1008400021F00041044600221C4BFFF7BBFD0ED2F5
:1008500019490868FFF7A3FD06460022184BFFF769
:1008600005FD0446FFF782FD1649087002E00020EE
:100870001449087010498868FFF791FD21F0004184
:10088000044600220D4BFFF79DFD10D20A498868EF
:10089000FFF785FD06460022094BFFF7E7FC81F0D4
:1008A00000410446FFF762FD0749087002E000209E
:1008B00005490870BDE8F0815400002000C0724076
:1008C00000002E40010000200000002000BFFEE7D5
:1008D00070B51B4800684FF47A72B0FBF2F1481E05
:1008E000B0F1807F00D31BE0481E4FF0E022506142
:1008F00050170F22002807DA13071D0E114B00F0C6
:100900000F04241F1D5503E013071C0E0E4B1C542F
:1009100000BF00204FF0E02290610720106100BF6F
:1009200000F02CF800F014F800F0E0F900F048FABC
:1009300000F01AFA01224021044800F08DFA70BD3F
:100940002400002018ED00E000E400E00038014041
:1009500008B50121102000F075F80520ADF8000061
:1009600001208DF8020028208DF803006946024816
:10097000FFF7CCFE08BD00000010014008B50121C2
:10098000402000F05FF80120ADF8000010208DF845
:10099000030001208DF8020069460248FFF7B6FE09
:1009A00008BD00000018014000BFFEE770470000CE
:1009B000612100F8011B522100F8011B0C49097844
:1009C00000F8011B0B49097800F8011B0A49097856
:1009D00000F8011B0949097801700021074A1170CC
:1009E000054A1170034A1170014A117070470000E6
:1009F0000000002001000020020000200300002071
:100A00007047000029B1064A52690243044B5A61FB
:100A100004E0034A52698243014B5A617047000067
:100A20000010024029B1064AD2690243044BDA6140
:100A300004E0034AD2698243014BDA617047000047
:100A40000010024029B1064A92690243044B9A61A0
:100A500004E0034A92698243014B9A6170470000A7
:100A60000010024030B500210022002400232D4D4B
:100A70006D6805F00C0121B1042905D0082923D1A6
:100A800005E0294D056022E0274D05601FE0254D5A
:100A90006D6805F47012234D6D6805F480340225ED
:100AA00005EB92421CB9214D554305600BE01D4DED
:100AB0006D6815F4003F03D01C4D5543056002E0FE
:100AC000194D5543056002E0174D056000BF00BF9A
:100AD000144D6D6805F0F0010909154D6B5C056852
:100AE000DD4045600F4D6D6805F4E061090A104D69
:100AF0006B5C4568DD4085600A4D6D6805F46051AA
:100B0000C90A0B4D6B5C4568DD40C560054D6D68DD
:100B100005F44041890B074D6B5CC568B5FBF3F5E7
:100B2000056130BD0010024000127A0000093D004E
:100B300008000020180000207047000010B50421B4
:100B40001248FFF76CFE01280CD10520FFF7D4FDF9
:100B500004210E48FFF763FE012800D100E00020C9
:100B60000B49087001210948FFF759FE01280CD1F3
:100B70000520FFF7C1FD01210448FFF750FE0128C1
:100B800000D100E000200349087010BD00100140B2
:100B9000020000200300002010B500F001F810BD95
:100BA0000CB50020019000903248006840F480307D
:100BB0003049086000BF2F48006800F40030009002
:100BC0000198401C0190009818B90198B0F5A06FE9
:100BD000F1D12848006810F4003F02D001200090B5
:100BE00001E0002000900098012842D122480068CE
:100BF00040F01000204908600846006820F003001B
:100C000008600846006840F0020008601948406823
:100C1000184948600846406848600846406840F403
:100C2000806048600846406820F47C1048600846B0
:100C3000406840F4E81048600846006840F0807062
:100C4000086000BF0B48006810F0007FFAD0094828
:100C5000406820F00300074948600846406840F0BB
:100C60000200486000BF0348406800F00C000828FC
:100C7000F9D10CBD0010024000200240024800687B
:100C8000401E0149086070470400002010B5134859
:100C9000006840F0010011490860084640681049AA
:100CA00008400E494860084600680E4908400B4954
:100CB00008600846006820F4802008600846406804
:100CC00020F4FE0048604FF41F008860FFF764FFC7
:100CD0004FF000600449086010BD000000100240A1
:100CE0000000FFF8FFFFF6FE08ED00E000B585B05C
:100CF000012144F20400FFF7A5FE4FF40070ADF8A7
:100D0000100018208DF8130003208DF8120004A99C
:100D10001348FFF7FBFC4FF48060ADF8100004208F
:100D20008DF8130004A90E48FFF7F0FC4FF4E130F2
:100D300000900020ADF80400ADF80600ADF8080002
:100D4000ADF80C000C20ADF80A006946054800F02B
:100D500099F80121034800F073F805B000BD0000C8
:100D6000000801400038014000B58BB00121084661
:100D7000FFF748FE0F4800900F48019000200290B6
:100D800021200390002004908020059000200690F0
:100D9000079020200890C001099000200A90694621
:100DA0000648FFF789FC01210448FFF763FC0BB0FC
:100DB00000BD0000043801406C00002058000240D3
:100DC00000B585B001210420FFF73CFE0121480455
:100DD000FFF728FE0420ADF8000003208DF8020084
:100DE00018208DF8030069461348FFF78FFC082090
:100DF000ADF8000004208DF8030069460E48FFF7A7
:100E000085FC4FF4E13001900020ADF810000C207B
:100E1000ADF80E000020ADF80C00ADF80A00ADF8FA
:100E2000080001A9054800F02DF80121034800F051
:100E300007F805B000BD0000000801400044004074
:100E400021B1828942F40052828104E082894DF608
:100E5000FF731A40828170471AB1838A0B438382E1
:100E600002E0838A8B438382704702460020B1F5FB
:100E7000007F00D100BF13880B4201D0012000E0A9
:100E8000002070472DE9F04786B005460E46002445
:100E9000A24600BFA1460027B08900B100BF2F467F
:100EA0002C8A4CF6FF700440F08804432C82AC89F5
:100EB0004EF6F3100440B088318908437189084325
:100EC0000443AC81AC8A4FF6FF400440B089044330
:100ED000AC8201A8FFF7C6FD1F48874202D1DDF8AA
:100EE00010A001E0DDF80CA0A88910F4004F08D094
:100EF0000AEBCA0000EB0A1031684900B0FBF1F8B8
:100F000007E00AEBCA0000EB0A1031688900B0FB69
:100F1000F1F86420B8FBF0F004012009642101FB22
:100F20001089A88910F4004F08D0322000EBC900C6
:100F3000B0FBF1F000F00700044308E0322000EBC2
:100F400009106421B0FBF1F000F00F0004432C8184
:100F500006B0BDE8F087000000380140C1F3080288
:100F60008280704700BFFEE702E008C8121F08C178
:100F7000002AFAD170477047002001E001C1121F1A
:100F8000002AFBD17047000070B504460D46E1B25F
:100F90000548FFF7E3FF00BF40210348FFF765FF67
:100FA0000028F9D0204670BD00440040FFF790FCB7
:100FB00020E04FF40030FFF769FB012816D1002430
:100FC000FFF736FCFFF7BAFD0B48FFF7F1FC00BF57
:100FD00005E00949085D094900F012F8641C062C77
:100FE000F7DB4FF40030FFF737FB00BF4FF4FA7028
:100FF000FFF782FBDDE700001C0000203800002026
:10100000FFF7C2BF24100008000000203C000000D1
:10101000680F0008601000083C0000205404000025
:10102000780F000800000000000000000000000031
:10103000010203040102030406070809020406086A
:10104000000000000000000000A24A0400000000B0
:101050000000000001020304060708090000000068
:04000005080001519D
:00000001FF
