:020000040800F2
:1000000050040020650100083D0400083703000883
:1000100039040008AD0100082509000800000000AF
:10002000000000000000000000000000750500084E
:1000300005020008000000003F0400085D060008FB
:100040007F0100087F0100087F0100087F01000890
:100050007F0100087F0100087F0100087F01000880
:100060007F0100087F0100087F0100087F01000870
:100070007F0100087F0100087F0100087F01000860
:100080007F0100087F0100087F0100087F01000850
:100090007F0100087F0100087F0100087F01000840
:1000A0007F0100087F0100087F0100087F01000830
:1000B0007F0100087F0100087F0100087F01000820
:1000C0007F0100087F0100087F0100087F01000810
:1000D0007F0100087F0100087F0100087F01000800
:1000E0007F0100087F0100087F0100080000000078
:1000F0000000000000000000000000000000000000
:1001000000000000000000007F0100087F010008DF
:100110007F0100087F0100087F0100087F010008BF
:100120007F0100087F0100087F0100087F010008AF
:100130007F0100087F0100087F0100087F0100089F
:100140007F0100087F0100087F0100087F0100088F
:10015000DFF80CD000F018F8004800474709000805
:10016000500400200648804706480047FEE7FEE7A7
:10017000FEE7FEE7FEE7FEE7FEE7FEE7FEE7FEE757
:100180006D06000851010008064C074D06E0E068C6
:1001900040F0010394E8070098471034AC42F6D3CE
:1001A000FFF7DAFF5C0900087C09000800BFFEE7E2
:1001B00021B1026842F00102026004E002684FF6D9
:1001C000FE731A400260704710B50022026847F6BD
:1001D000F0739A430C6A8B6823430C6923434C6980
:1001E00023438C692343CC6923434C6A23438C6AA1
:1001F00023431A430260CB6843600B6883604B68FB
:10020000C36010BD704700000349086000BF024989
:1002100009680029FBD17047000000202DE9F0415A
:10022000024600250026002000230024002791F824
:1002300003C00CF00F0591F803C01CF0100F03D0A1
:1002400091F802C04CEA050591F800C0BCF1000F1E
:1002500031D0146800202BE04FF0010C0CFA00F3B1
:10026000B1F800C00CEA03069E4220D183004FF093
:100270000F0C0CFA03F7BC4305FA03FC4CEA040428
:1002800091F803C0BCF1280F06D14FF0010C0CFA15
:1002900000FCC2F814C00AE091F803C0BCF1480F9A
:1002A00005D14FF0010C0CFA00FCC2F810C0401C44
:1002B0000828D1D31460B1F800C0BCF1FF0F34DDC1
:1002C000546800202EE000F1080C4FF0010808FAF5
:1002D0000CF3B1F800C00CEA03069E4221D1830062
:1002E0004FF00F0C0CFA03F7BC4305FA03FC4CEA81
:1002F000040491F803C0BCF1280F05D100F1080CEB
:1003000008FA0CF8C2F8148091F803C0BCF1480F49
:1003100007D100F1080C4FF0010808FA0CF8C2F8F8
:100320001080401C0828CED35460BDE8F0814161A4
:1003300070470161704700BFFEE7000070B51B48C1
:1003400000684FF47A72B0FBF2F1481EB0F1807F82
:1003500000D31BE0481E4FF0E022506150170F22DF
:10036000002807DA13071D0E114B00F00F04241F9D
:100370001D5503E013071C0E0E4B1C5400BF00203C
:100380004FF0E02290610720106100BF00F03EF8BE
:1003900000F014F800F09AF900F002FA00F0D4F935
:1003A00001224021044800F047FA70BD18000020E7
:1003B00018ED00E000E400E00038014008B501213C
:1003C000102000F05DF80520ADF8000001208DF848
:1003D000020028208DF8030069460248FFF71EFF3F
:1003E00008BD00000010014070B504460D46012D07
:1003F00004D121460448FFF79AFF03E02146024852
:10040000FFF797FF70BD00000018014008B50121FB
:10041000402000F035F80120ADF8000010208DF8E4
:10042000030001208DF8020069460248FFF7F6FE3E
:1004300008BD00000018014000BFFEE7704770478C
:1004400029B1064A52690243044B5A6104E0034A47
:1004500052698243014B5A6170470000001002400C
:1004600029B1064AD2690243044BDA6104E0034A27
:10047000D2698243014BDA617047000000100240EC
:1004800029B1064A92690243044B9A6104E0034A87
:1004900092698243014B9A6170470000001002404C
:1004A00030B500210022002400232D4D6D6805F099
:1004B0000C0121B1042905D0082923D105E0294DDB
:1004C000056022E0274D05601FE0254D6D6805F4AD
:1004D0007012234D6D6805F48034022505EB9242BD
:1004E0001CB9214D554305600BE01D4D6D6815F499
:1004F000003F03D01C4D5543056002E0194D5543A4
:10050000056002E0174D056000BF00BF144D6D6827
:1005100005F0F0010909154D6B5C0568DD4045608B
:100520000F4D6D6805F4E061090A104D6B5C45687C
:10053000DD4085600A4D6D6805F46051C90A0B4DB8
:100540006B5C4568DD40C560054D6D6805F4404154
:10055000890B074D6B5CC568B5FBF3F5056130BDD4
:100560000010024000127A0000093D000400002043
:1005700014000020704710B500F002F810BD000014
:100580000CB50020019000903248006840F48030A3
:100590003049086000BF2F48006800F40030009028
:1005A0000198401C0190009818B90198B0F5A06F0F
:1005B000F1D12848006810F4003F02D001200090DB
:1005C00001E0002000900098012842D122480068F4
:1005D00040F01000204908600846006820F0030041
:1005E00008600846006840F002000860194840684A
:1005F000184948600846406848600846406840F42A
:10060000806048600846406820F47C1048600846D6
:10061000406840F4E81048600846006840F0807088
:10062000086000BF0B48006810F0007FFAD009484E
:10063000406820F00300074948600846406840F0E1
:100640000200486000BF0348406800F00C00082822
:10065000F9D10CBD001002400020024002480068A1
:10066000401E0149086070470000002010B5134883
:10067000006840F0010011490860084640681049D0
:1006800008400E494860084600680E4908400B497A
:1006900008600846006820F480200860084640682A
:1006A00020F4FE0048604FF41F008860FFF763FFEE
:1006B0004FF000600449086010BD000000100240C7
:1006C0000000FFF8FFFFF6FE08ED00E000B585B082
:1006D000012144F20400FFF7D3FE4FF40070ADF89F
:1006E000100018208DF8130003208DF8120004A9C3
:1006F0001348FFF793FD4FF48060ADF8100004201D
:100700008DF8130004A90E48FFF788FD4FF4E1307F
:1007100000900020ADF80400ADF80600ADF8080028
:10072000ADF80C000C20ADF80A006946054800F051
:100730008DF80121034800F073F805B000BD0000FA
:10074000000801400038014000B58BB00121084687
:10075000FFF776FE0F4800900F48019000200290AE
:100760002120039000200490802005900020069016
:10077000079020200890C001099000200A90694647
:100780000648FFF721FD01210448FFF711FD0BB0DA
:1007900000BD0000043801402C0000205800024039
:1007A00000B585B001210420FFF76AFE012148044D
:1007B000FFF756FE0420ADF8000003208DF802007C
:1007C00018208DF8030069461348FFF727FD08201D
:1007D000ADF8000004208DF8030069460E48FFF7CD
:1007E0001DFD4FF4165001900020ADF810000C20B4
:1007F000ADF80E000020ADF80C00ADF80A00ADF821
:10080000080001A9054800F021F80121034800F083
:1008100007F805B000BD000000080140004400409A
:1008200021B1828942F40052828104E082894DF62E
:10083000FF731A40828170471AB1838A0B43838207
:1008400002E0838A8B438382704700002DE9F047E2
:1008500086B005460E460024A24600BFA1460027EA
:10086000B08900B100BF2F462C8A4CF6FF700440BF
:10087000F08804432C82AC894EF6F3100440B08813
:1008800031890843718908430443AC81AC8A4FF62F
:10089000FF400440B0890443AC8201A8FFF700FE8A
:1008A0001F48874202D1DDF810A001E0DDF80CA05E
:1008B000A88910F4004F08D00AEBCA0000EB0A1018
:1008C00031684900B0FBF1F807E00AEBCA0000EB21
:1008D0000A1031688900B0FBF1F86420B8FBF0F031
:1008E00004012009642101FB1089A88910F4004F3C
:1008F00008D0322000EBC900B0FBF1F000F0070097
:10090000044308E0322000EB09106421B0FBF1F051
:1009100000F00F0004432C8106B0BDE8F087000012
:100920000038014000BFFEE702E008C8121F08C1FE
:10093000002AFAD170477047002001E001C1121F60
:10094000002AFBD17047FFF7F9FC06E001210846B9
:10095000FFF74AFD0A20FFF757FCF7E77C0900087C
:10096000000000202C00000028090008A809000849
:100970002C000020240400003809000800000000BA
:100980000000000001020304010203040607080935
:100990000204060800A24A04000000000000000053
:0809A000010203040607080927
:04000005080001519D
:00000001FF
